:020000040800F2
:100000000000032079110008C5080008CD08000889
:10001000D5080008DD080008E50800080000000019
:10002000000000000000000000000000ED080008D3
:10003000FB08000800000000090900081709000873
:10004000C9110008C9110008C9110008C911000828
:10005000C9110008C9110008C9110008C911000818
:10006000C9110008C9110008C9110008C911000808
:10007000C9110008C9110008C9110008C9110008F8
:1000800025090008C9110008C9110008C911000894
:10009000C9110008C9110008C9110008C9110008D8
:1000A000C911000839090008C9110008C911000860
:1000B000C9110008C9110008C9110008C9110008B8
:1000C000C9110008C9110008C9110008C9110008A8
:1000D000C9110008C91100084D090008C91100081C
:1000E00061090008C9110008C9110008C9110008F8
:1000F000C9110008C9110008C9110008C911000878
:10010000C9110008C9110008C9110008C911000867
:10011000C9110008C9110008C9110008C911000857
:10012000C911000871090008C9110008C9110008A7
:10013000C9110008C9110008C9110008C911000837
:10014000C9110008C9110008C9110008C911000827
:10015000C9110008C9110008C91100088509000863
:10016000C9110008C9110008C9110008C911000807
:10017000C9110008C9110008C911000800000000D9
:10018000C9110008C9110008C9110008C9110008E7
:10019000C9110008C9110008C9110008C9110008D7
:0C01A000C9110008C9110008C9110008AD
:1001AC0010B5054C237833B9044B13B10448AFF3A5
:1001BC0000800123237010BDA0000020000000006F
:1001CC006848000808B5034B1BB103490348AFF35B
:1001DC00008008BD00000000A40000206848000852
:1001EC00034613F8012B002AFBD1181A013870476B
:1001FC0053B94AB9002908BF00281CBF4FF0FF3182
:10020C004FF0FF3000F088B9ADF1080C6DE904CE69
:10021C0000F006F8DDF804E0DDE9022304B07047D5
:10022C002DE9F047089D8E4604468846002B4AD19E
:10023C008A42174662D9B2FA82F64EB1C6F1200351
:10024C0001FA06F820FA03F3B74043EA0808B44071
:10025C004FEA174E1FFA87FCB8FBFEF1230C0EFB7E
:10026C00118843EA084301FB0CF29A4209D9FB18A6
:10027C0001F1FF3080F0EA809A4240F2E7800239C7
:10028C003B449A1AA3B2B2FBFEF00EFB102243EAD7
:10029C00024300FB0CFC9C4509D9FB1800F1FF3212
:1002AC0080F0D6809C4540F2D3803B44023840EA33
:1002BC000140A3EB0C0300211DB1F3400022C5E962
:1002CC000032BDE8F0878B4205D90DB1C5E90001BC
:1002DC0000210846F5E7B3FA83F1002946D17345AE
:1002EC0002D3824200F20581841A6EEB03020120D4
:1002FC009046002DE5D0C5E90048E2E7002A00F061
:10030C009080B2FA82F6002E40F0A4808A1A030C78
:10031C004FEA174E80B2BCB20121B2FBFEFC0EFBC1
:10032C001C2243EA024304FB0CF29A4207D9FB1845
:10033C000CF1FF3802D29A4200F2E080C4469B1ABC
:10034C00B3FBFEF20EFB123340EA034302FB04F450
:10035C009C4207D9FB1802F1FF3002D29C4200F2FA
:10036C00CA8002461B1B42EA0C40A5E7C1F12006DD
:10037C008B4022FA06F71F430EFA01F420FA06F31B
:10038C002EFA06FE4FEA1749234300FA01F81FFA2A
:10039C0087FCBEFBF9F01C0C09FB10EE44EA0E4482
:1003AC0000FB0CFEA64502FA01F209D93C1900F13A
:1003BC00FF3A80F09C80A64540F2998002383C447C
:1003CC00A4EB0E041FFA83FEB4FBF9F309FB1344F0
:1003DC004EEA044403FB0CFCA44508D93C1903F178
:1003EC00FF3E80F08280A4457FD9023B3C4443EA27
:1003FC000040A4EB0C04A0FB02EC64457346E14600
:10040C0062D35FD05DB1B8EB030264EB090404FA6C
:10041C0006F622FA01F31E43CC40C5E90064002124
:10042C004FE7B1FBF2FC010C41EA0E4180B240EA0D
:10043C0001423B4638463C46B846BE462026B1FBF8
:10044C00F7F1A2EB080241EA0C4166E7014618E716
:10045C0010462CE7C6F120022EFA02F3B740B14049
:10046C0020FA02F24FEA174E0A43B3FBFEF8BCB275
:10047C000EFB1833110C41EA034108FB04F9B040A0
:10048C0089454FEA104380B23ED9791808F1FF3CF8
:10049C0001D289451FD8A1EB0901B1FBFEF909FB7B
:1004AC0004F80EFB191192B242EA0142424529D2DC
:1004BC00BA1809F1FF31C4D24245C2D2A9F10201E6
:1004CC003A44BEE7F0459DD2BEEB02036CEB070C41
:1004DC000138E14696E7A7EB09094944A8F1020C5B
:1004EC00B1FBFEF909FB04F8DBE773467FE75046E6
:1004FC0066E70846FDE63B44023A33E7ACF1020CF2
:10050C003B441CE749469CE7A1EB0901C446B1FBFF
:10051C00FEF909FB04F8C4E7704700BF80B582B050
:10052C0000AF00237B60174B1B6B164A43F4001380
:10053C001363144B1B6B03F400137B607B68002369
:10054C003B60104B1B6B0F4A43F4800313630D4B42
:10055C001B6B03F480033B603B68002200211020DE
:10056C0000F07BFF102000F094FF002200213920C6
:10057C0000F073FF392000F08CFF00BF0837BD4638
:10058C0080BD00BF0038024080B58AB000AF07F1D3
:10059C00140300221A605A609A60DA601A61002310
:1005AC003B61394B1B6B384A43F004031363364BE6
:1005BC001B6B03F004033B613B690023FB60324B74
:1005CC001B6B314A43F0800313632F4B1B6B03F0FF
:1005DC008003FB60FB680023BB602B4B1B6B2A4A20
:1005EC0043F002031363284B1B6B03F00203BB6045
:1005FC00BB6800237B60244B1B6B234A43F0010335
:10060C001363214B1B6B03F001037B607B6800239E
:10061C003B601D4B1B6B1C4A43F0080313631A4BC6
:10062C001B6B03F008033B603B68002244F2810122
:10063C00164801F0F7FC4FF400537B614FF488131C
:10064C00BB610023FB6107F114031946104801F04C
:10065C003DFB44F281037B610123BB610023FB6101
:10066C0000233B6207F114031946084801F02EFBE6
:10067C0000220021282000F0F0FE282000F009FFC5
:10068C0000BF2837BD4680BD003802400004024040
:10069C000008024080B582B000AF78600B46FB705A
:1006AC00FB789BB21946786801F0D5FC00BF184660
:1006BC000837BD4680BD000080B500AF084B1B68F5
:1006CC00B3F5FA6F09D3064B00221A6001210548D5
:1006DC00FFF7E0FF044800F0D1FB0023184680BD73
:1006EC0010010020000402408048000880B500AFD3
:1006FC0000F066FD00F042F8FFF746FFFFF70EFF33
:10070C0000F076FA00F0E4F900F09CFA134802F0DD
:10071C000DFA4FF480721249124802F002FF124B8C
:10072C001B681A68104B1B6822F008021A604FF401
:10073C0080720E490E4802F0F4FE0E4B1B681A68CC
:10074C000C4B1B6822F008021A600B4B1B68984775
:10075C0000F09CFC00F0DEFC00BFF6E7C8000020B7
:10076C00140100201C030020AC0300201402002004
:10077C00640300200C0400200000002080B594B01D
:10078C0000AF07F1200330220021184604F028F8AE
:10079C0007F10C0300221A605A609A60DA601A6141
:1007AC000023BB602B4B1B6C2A4A43F08053136411
:1007BC00284B1B6C03F08053BB60BB6800237B6031
:1007CC00254B1B68244A43F440431360224B1B689F
:1007DC0003F440437B607B6801233B624FF4A0230E
:1007EC007B620223BB634FF48003FB6304233B64F3
:1007FC00B4237B640223BB640423FB6407F1200352
:10080C00184601F0ABFC0346002B01D000F026F893
:10081C0001F054FC0346002B01D000F01FF80F230D
:10082C00FB6002233B6100237B614FF4A053BB614F
:10083C004FF48053FB6107F10C030521184601F0BE
:10084C0005FF0346002B01D000F008F800BF50371D
:10085C00BD4680BD003802400070004080B400AF3F
:10086C0072B600BF00BFFDE780B483B000AF0023B9
:10087C007B60104B5B6C0F4A43F4804353640D4B0D
:10088C005B6C03F480437B607B6800233B60094B0B
:10089C001B6C084A43F080531364064B1B6C03F02B
:1008AC0080533B603B6800BF0C37BD465DF8047B52
:1008BC00704700BF0038024080B400AF00BFFDE7B6
:1008CC0080B400AF00BFFDE780B400AF00BFFDE710
:1008DC0080B400AF00BFFDE780B400AF00BFFDE700
:1008EC0080B400AF00BFBD465DF8047B704780B498
:1008FC0000AF00BFBD465DF8047B704780B400AF0D
:10090C0000BFBD465DF8047B704780B500AF00F0BA
:10091C00A9FC00BF80BD000080B500AF024800F00C
:10092C006BFF00BF80BD00BFAC03002080B500AFE3
:10093C00024802F06BF900BF80BD00BFC800002068
:10094C0080B500AF024802F045FE00BF80BD00BF7D
:10095C001C03002080B500AF4FF4005001F096FB53
:10096C0000BF80BD80B500AF024800F045FF00BF5E
:10097C0080BD00BF0C04002080B582B000AF154BC9
:10098C001B681B6803F00203022B06D0114B1B687B
:10099C001B6803F00803082B15D100237B600D4B5B
:1009AC001B681B687B600B4B1B685B687B607B6800
:1009BC0000233B60074B1B681B683B60054B1B68A7
:1009CC005B683B603B68034802F004FE00BF0837DD
:1009DC00BD4680BD6403002080B582B000AF0346E5
:1009EC00FB80FB88B3F5005F24D100F04FFC03467D
:1009FC00124A1360114B1A68114B1B68D31A632BE4
:100A0C0017D90E4B1B680E4A136080210D4801F05C
:100A1C0022FB0D4B1B78002B14BF01230023DBB2F0
:100A2C0083F00103DBB203F00103DAB2064B1A7058
:100A3C0000E000BF0837BD4680BD00BFC4000020E9
:100A4C00C000002000040240BC00002080B483B031
:100A5C0000AF78600B467B807B681B680D4A934225
:100A6C0006D10D4A7B8813800C4B01221A700AE0C8
:100A7C007B681B680A4A934205D10A4A7B8813801B
:100A8C00094B01221A7000BF0C37BD465DF8047B80
:100A9C00704700BF004400401603002014030020E0
:100AAC00001401401A0300201803002080B400AF8A
:100ABC00064BD3F88830054A43F47003C2F88830EB
:100ACC0000BFBD465DF8047B704700BF00ED00E041
:100ADC0080B586B000AF07F1080300221A605A6097
:100AEC009A60DA603B4600221A605A601E4B1F4A1D
:100AFC001A601D4BB3225A601B4B00229A601A4B92
:100B0C0040F2E732DA60184B00221A61164B0022D1
:100B1C005A61154B00229A61134801F0B7FF034646
:100B2C00002B01D0FFF79AFE4FF48053BB6007F106
:100B3C00080319460C4802F059F90346002B01D062
:100B4C00FFF78CFE00233B6000237B603B4619467D
:100B5C00054802F07BFB0346002B01D0FFF77EFE1D
:100B6C0000BF1837BD4680BDC80000200000014002
:100B7C0080B584B000AF78607B681B680E4A9342E6
:100B8C0015D10023FB600D4B5B6C0C4A43F0010349
:100B9C0053640A4B5B6C03F00103FB60FB6800229F
:100BAC000021192000F059FC192000F072FC00BF44
:100BBC001037BD4680BD00BF000001400038024028
:100BCC0080B483B000AF78607B681B68064A9342A0
:100BDC0004D1064B1B680133044A136000BF0C3769
:100BEC00BD465DF8047B70470000014010010020F9
:100BFC0080B500AF114B124A1A60104B4FF4E13222
:100C0C005A600E4B00229A600C4B0022DA600B4BA0
:100C1C0000221A61094B0C225A61084B00229A617E
:100C2C00064B0022DA61054802F0A0FB0346002BBC
:100C3C0001D0FFF713FE00BF80BD00BF1C030020D6
:100C4C000044004080B500AF114B124A1A60104BA3
:100C5C004FF4E1325A600E4B00229A600C4B00228A
:100C6C00DA600B4B00221A61094B0C225A61084BBB
:100C7C0000229A61064B0022DA61054802F076FBED
:100C8C000346002B01D0FFF7E9FD00BF80BD00BF7C
:100C9C00640300200014014080B58CB000AF786074
:100CAC0007F11C0300221A605A609A60DA601A611C
:100CBC007B681B68684A934262D10023BB61674B17
:100CCC001B6C664A43F400331364644B1B6C03F4D3
:100CDC000033BB61BB6900237B61604B1B6B5F4ABC
:100CEC0043F0080313635D4B1B6B03F008037B613C
:100CFC007B696023FB6102233B6200237B6203233D
:100D0C00BB620723FB6207F11C031946544800F031
:100D1C00DDFF544B544A1A60524B4FF000625A603C
:100D2C00504B00229A604F4B0022DA604D4B4FF42F
:100D3C0080621A614B4B00225A614A4B00229A6125
:100D4C00484B0022DA61474B00221A62454B0022C5
:100D5C005A62444800F0B8FB0346002B01D0FFF761
:100D6C007DFD7B683F4ADA633E4A7B6893630022D1
:100D7C000021262000F071FB262000F08AFB66E0A3
:100D8C007B681B68394A934261D100233B61334B2A
:100D9C005B6C324A43F020035364304B5B6C03F0C2
:100DAC0020033B613B690023FB602C4B1B6B2B4AE4
:100DBC0043F004031363294B1B6B03F00403FB6028
:100DCC00FB68C023FB6102233B6200237B6203238D
:100DDC00BB620823FB6207F11C031946244800F090
:100DEC0075FF244B244A1A60224B4FF020625A6044
:100DFC00204B00229A601F4B0022DA601D4B4FF4EF
:100E0C0080621A611B4B00225A611A4B00229A61B4
:100E1C00184B0022DA61174B00221A62154B002284
:100E2C005A62144800F050FB0346002B01D0FFF728
:100E3C0015FD7B680F4ADA630E4A7B6893630022C8
:100E4C000021472000F009FB472000F022FB00BFE7
:100E5C003037BD4680BD00BF004400400038024022
:100E6C00000C0240AC0300208860024000140140DA
:100E7C00000802400C0400202864024090B583B0A6
:100E8C0000AF7860114B1B78012B10D1104B1B88D5
:100E9C001C467868FFF7A4F903469C4207D00C4B1C
:100EAC001A88642379680B4802F0B0FA09E0786874
:100EBC00FFF796F903469AB264237968054802F065
:100ECC00A5FA00BF18460C37BD4690BD1403002090
:100EDC00160300201C03002080B582B000AF7860A0
:100EEC007868FFF77DF903469AB24FF47A73796804
:100EFC00034802F08BFA00BF0837BD4680BD00BF27
:100F0C001C03002080B582B000AF78601148FFF759
:100F1C0067F903461A4600210E4803F061FC786815
:100F2C00FFF75EF903469AB24FF47A7379680A4870
:100F3C0002F06CFA7868FFF753F903469AB24FF453
:100F4C007A737968054802F061FA00BF0837BD462C
:100F5C0080BD00BF140200201C030020640300208D
:100F6C0080B584B000AF78600023FB6040E0274A76
:100F7C00FB681B0113441968244AFB681B011344CA
:100F8C0008331B781A46786803F032FC0346002BB2
:100F9C002BD1FB68002B02D11D4B03221A701D486C
:100FAC00FFF71EF903469AB24FF47A7319491A489F
:100FBC0002F02CFA0346002B22D1144AFB681B01C9
:100FCC00134404331B681149FA6812010A440C32A9
:100FDC001268104698470F48FFF702F903461A4665
:100FEC0000210C4803F0FCFB0AE0FB680133FB60BA
:100FFC00064AFB681B0113441B68002BB7D100E0A9
:10100C0000BF18461037BD4680BD00BF0800002049
:10101C006C040020140200201C03002080B584B056
:10102C0000AF78600023FB6023E0174AFB681B01CC
:10103C0013441968144AFB681B01134408331B78CA
:10104C001A46786803F0D4FB0346002B0ED10E4AE7
:10105C00FB681B01134404331B680B49FA6812012B
:10106C000A440C3212681046984709E0FB680133B9
:10107C00FB60054AFB681B0113441B68002BD4D191
:10108C0018461037BD4680BD6800002080B500AF03
:10109C00184B1A78184B1B789A4209D0164B1A78B1
:1010AC00144B1A7064230E221449154802F0AEF941
:1010BC00144B1B78002B19D01348FFF7DFFE124896
:1010CC00FFF7ACFF114B00221A800E4B00221A7056
:1010DC004FF480720C490A4802F023FA0C4B1B683F
:1010EC001A680B4B1B6822F008021A6000BF00BF85
:1010FC00184680BDBD000020BC00002064490008DB
:10110C001C030020140300201401002016030020EF
:10111C00AC03002080B500AF0F4B1B78002B16D012
:10112C000E48FFF71DFF0E4B00221A800A4B0022BF
:10113C001A704FF4807209490A4802F0F2F90A4B0E
:10114C001B681A68084B1B6822F008021A6000BF63
:10115C0000BF184680BD00BF1803002014020020F9
:10116C001A030020640300200C040020DFF834D0A4
:10117C00FFF79CFC0C480D490D4A002302E0D458A3
:10118C00C4500433C4188C42F9D30A4A0A4C0023C5
:10119C0001E013600432A242FBD303F03BFBFFF7E8
:1011AC00A5FA70470000032000000020A0000020DA
:1011BC00A4490008A000002074040020FEE70000F1
:1011CC0080B500AF0E4B1B680D4A43F400731360DF
:1011DC000B4B1B680A4A43F480631360084B1B6873
:1011EC00074A43F480731360032000F02BF90F209F
:1011FC0000F008F8FFF738FB0023184680BD00BF4D
:10120C00003C024080B582B000AF7860124B1A6887
:10121C00124B1B7819464FF47A73B3FBF1F3B2FB04
:10122C00F3F3184600F043F90346002B01D00123D9
:10123C000EE07B680F2B0AD8002279684FF0FF3044
:10124C0000F00BF9064A7B681360002300E00123D1
:10125C0018460837BD4680BD040000209C000020C5
:10126C009800002080B400AF064B1B781A46064B42
:10127C001B681344044A136000BFBD465DF8047B31
:10128C00704700BF9C0000207004002080B400AFA9
:10129C00034B1B681846BD465DF8047B704700BFC6
:1012AC007004002080B485B000AF78607B6803F0D8
:1012BC000703FB600C4BDB68BB60BA684FF6FF039F
:1012CC001340BB60FB681A02BB68134343F0BF6357
:1012DC0043F40033BB60044ABB68D36000BF1437CF
:1012EC00BD465DF8047B704700ED00E080B400AFB4
:1012FC00044BDB681B0A03F007031846BD465DF878
:10130C00047B704700ED00E080B483B000AF03466F
:10131C00FB7197F90730002B0BDBFB7903F01F02F5
:10132C00074997F907305B09012000FA02F241F8EE
:10133C00232000BF0C37BD465DF8047B704700BF0F
:10134C0000E100E080B483B000AF03463960FB716C
:10135C0097F90730002B0ADB3B68DAB20C4997F996
:10136C0007301201D2B20B4483F800230AE03B6829
:10137C00DAB20849FB7903F00F03043B1201D2B235
:10138C000B441A7600BF0C37BD465DF8047B7047E2
:10139C0000E100E000ED00E080B489B000AFF8603F
:1013AC00B9607A60FB6803F00703FB61FB69C3F16A
:1013BC000703042B28BF0423BB61FB690433062BF2
:1013CC0002D9FB69033B00E000237B614FF0FF3245
:1013DC00BB6902FA03F3DA43BB681A407B699A4093
:1013EC004FF0FF317B6901FA03F3D9437B680B4063
:1013FC00134318462437BD465DF8047B7047000044
:10140C0080B582B000AF78607B68013BB3F1807F20
:10141C0001D301230FE00A4A7B68013B53600F2183
:10142C004FF0FF30FFF78EFF054B00229A60044B04
:10143C0007221A60002318460837BD4680BD00BF3E
:10144C0010E000E080B582B000AF78607868FFF7FC
:10145C0029FF00BF0837BD4680BD80B586B000AF00
:10146C000346B9607A60FB7300237B61FFF73EFF94
:10147C0078617A68B9687869FFF78EFF024697F948
:10148C000F3011461846FFF75DFF00BF1837BD46F9
:10149C0080BD80B582B000AF0346FB7197F9073071
:1014AC001846FFF731FF00BF0837BD4680BD80B539
:1014BC0082B000AF78607868FFF7A2FF0346184649
:1014CC000837BD4680BD000080B586B000AF78609F
:1014DC0000237B61FFF7DAFE38617B68002B01D1BA
:1014EC00012399E07B68022283F835207B68002277
:1014FC0083F834207B681B681A687B681B6822F0B1
:10150C0001021A600FE0FFF7C1FE02463B69D31AD5
:10151C00052B08D97B6820225A657B68032283F847
:10152C003520032378E07B681B681B6803F00103FC
:10153C00002BE8D17B681B681B687B617A69384B90
:10154C0013407B617B685A687B689B681A437B6895
:10155C00DB681A437B681B691A437B685B691A4317
:10156C007B689B691A437B68DB691A437B681B6A3F
:10157C0013437A6913437B617B685B6A042B07D145
:10158C007B68DA6A7B681B6B13437A6913437B6154
:10159C007B681B687A691A607B681B685B697B6176
:1015AC007B6923F007037B617B685B6A7A69134371
:1015BC007B617B685B6A042B17D17B689B6A7A69B9
:1015CC0013437B617B68DB6A002B0ED0786800F0DC
:1015DC0001FB0346002B08D07B6840225A657B68D0
:1015EC00012283F83520012316E07B681B687A6999
:1015FC005A61786800F0B8FA0346FB607B68DB6DD3
:10160C003F229A40FB689A607B6800225A657B688F
:10161C00012283F83520002318461837BD4680BDBB
:10162C003F8010F080B586B000AFF860B9607A608A
:10163C003B600023FB75FB689B6D3B61FB6893F87B
:10164C003430012B01D1022340E0FB68012283F8E6
:10165C003420FB6893F83530DBB2012B2FD1FB68BB
:10166C00022283F83520FB6800225A653B687A68B1
:10167C00B968F86800F04AFAFB68DB6D3F229A40C3
:10168C003B699A60FB681B681A68FB681B6842F030
:10169C0016021A60FB681B6C002B07D0FB681B68DA
:1016AC001A68FB681B6842F008021A60FB681B682A
:1016BC001A68FB681B6842F001021A6005E0FB68BF
:1016CC00002283F834200223FB75FB7D1846183763
:1016DC00BD4680BD80B584B000AF78607B689B6DE3
:1016EC00FB60FFF7D3FDB8607B6893F83530DBB255
:1016FC00022B08D07B6880225A657B68002283F815
:10170C003420012352E07B681B681A687B681B68D5
:10171C0022F016021A607B681B685A697B681B688A
:10172C0022F080025A617B681B6C002B03D17B6812
:10173C009B6C002B07D07B681B681A687B681B6846
:10174C0022F008021A607B681B681A687B681B68A9
:10175C0022F001021A6013E0FFF798FD0246BB6805
:10176C00D31A052B0CD97B6820225A657B6803227F
:10177C0083F835207B68002283F83420032315E09E
:10178C007B681B681B6803F00103002BE4D17B68AA
:10179C00DB6D3F229A40FB689A607B68012283F8DC
:1017AC0035207B68002283F834200023184610373C
:1017BC00BD4680BD80B483B000AF78607B6893F881
:1017CC003530DBB2022B04D07B6880225A650123B2
:1017DC000CE07B68052283F835207B681B681A684F
:1017EC007B681B6822F001021A60002318460C3734
:1017FC00BD465DF8047B704780B586B000AF78605D
:10180C000023BB608E4B1B688E4AA2FB03239B0AF2
:10181C007B617B689B6D3B613B691B68FB607B68F4
:10182C00DB6D08229A40FB681340002B1AD07B68B2
:10183C001B681B6803F00403002B13D07B681B6828
:10184C001A687B681B6822F004021A607B68DB6DE7
:10185C0008229A403B699A607B685B6D43F00102F9
:10186C007B685A657B68DB6D01229A40FB681340EC
:10187C00002B12D07B681B685B6903F08003002B84
:10188C000BD07B68DB6D01229A403B699A607B68C8
:10189C005B6D43F002027B685A657B68DB6D04224A
:1018AC009A40FB681340002B12D07B681B681B68A6
:1018BC0003F00203002B0BD07B68DB6D04229A40F3
:1018CC003B699A607B685B6D43F004027B685A65E8
:1018DC007B68DB6D10229A40FB681340002B43D0D1
:1018EC007B681B681B6803F00803002B3CD07B68EB
:1018FC00DB6D10229A403B699A607B681B681B6801
:10190C0003F48023002B18D07B681B681B6803F43E
:10191C000023002B08D17B681B6C002B24D07B6828
:10192C001B6C786898471FE07B689B6C002B1BD066
:10193C007B689B6C7868984716E07B681B681B6813
:10194C0003F48073002B07D17B681B681A687B68D3
:10195C001B6822F008021A607B681B6C002B03D0FA
:10196C007B681B6C786898477B68DB6D20229A40FB
:10197C00FB681340002B00F08F807B681B681B6892
:10198C0003F01003002B00F087807B68DB6D2022B6
:10199C009A403B699A607B6893F83530DBB2052B33
:1019AC0036D17B681B681A687B681B6822F01602AC
:1019BC001A607B681B685A697B681B6822F080027E
:1019CC005A617B681B6C002B03D17B689B6C002BD2
:1019DC0007D07B681B681A687B681B6822F00802BA
:1019EC001A607B68DB6D3F229A403B699A607B688A
:1019FC00012283F835207B68002283F834207B6831
:101A0C001B6D002B7ED07B681B6D7868984779E046
:101A1C007B681B681B6803F48023002B1DD07B683C
:101A2C001B681B6803F40023002B0DD17B685B6CD7
:101A3C00002B31D07B685B6C786898472CE000BF3A
:101A4C0004000020B5814E1B7B68DB6B002B23D080
:101A5C007B68DB6B786898471EE07B681B681B68AB
:101A6C0003F48073002B0FD17B681B681A687B68AA
:101A7C001B6822F010021A607B68012283F8352063
:101A8C007B68002283F834207B68DB6B002B03D04F
:101A9C007B68DB6B786898477B685B6D002B32D07A
:101AAC007B685B6D03F00103002B22D07B68052261
:101ABC0083F835207B681B681A687B681B6822F0EA
:101ACC0001021A60BB680133BB607A699A4207D382
:101ADC007B681B681B6803F00103002BF2D100E04C
:101AEC0000BF7B68012283F835207B68002283F8D5
:101AFC0034207B68DB6C002B05D07B68DB6C786852
:101B0C00984700E000BF1837BD4680BD80B485B053
:101B1C0000AFF860B9607A603B60FB681B681A68BC
:101B2C00FB681B6822F480221A60FB681B683A6809
:101B3C005A60FB689B68402B08D1FB681B687A686D
:101B4C009A60FB681B68BA68DA6007E0FB681B6880
:101B5C00BA689A60FB681B687A68DA6000BF143751
:101B6C00BD465DF8047B704780B485B000AF7860EB
:101B7C007B681B68DBB2103B144AA2FB03231B09D6
:101B8C00FB60134AFB6813441B781A467B68DA65C2
:101B9C00FB68032B09D97B681B6823F47F7323F044
:101BAC0003031A1D7B689A6507E07B681B6823F4A6
:101BBC007F7323F003037A6893657B689B6D1846EB
:101BCC001437BD465DF8047B704700BFABAAAAAAC8
:101BDC008C49000880B485B000AF78600023FB739B
:101BEC007B689B6ABB607B689B69002B1FD1BB68C1
:101BFC00032B56D801A252F823F000BF191C000881
:101C0C002B1C0008191C0008AF1C00087B68DB6A41
:101C1C0003F08073002B46D00123FB7343E07B68F9
:101C2C00DB6AB3F1C07F40D10123FB733DE07B68DD
:101C3C009B69B3F5005F21D1BB68032B37D801A298
:101C4C0052F823F0611C0008671C0008611C000896
:101C5C00791C00080123FB7330E07B68DB6A03F01E
:101C6C008073002B25D00123FB7322E07B68DB6A99
:101C7C00B3F1C07F1FD10123FB731CE0BB68022BA7
:101C8C0003D9BB68032B03D018E00123FB7315E0C9
:101C9C007B68DB6A03F08073002B0ED00123FB738F
:101CAC000BE000BF0AE000BF08E000BF06E000BF89
:101CBC0004E000BF02E000BF00E000BFFB7B184661
:101CCC001437BD465DF8047B704700BF80B489B003
:101CDC0000AF7860396000237B6100233B610023F7
:101CEC00BB610023FB6177E10122FB6902FA03F37C
:101CFC007B613B681B687A6913403B613A697B697D
:101D0C009A4240F066813B685B6803F00303012B49
:101D1C0005D03B685B6803F00303022B30D17B6872
:101D2C009B68BB61FB695B00032202FA03F3DB4394
:101D3C00BA691340BB613B68DA68FB695B0002FA65
:101D4C0003F3BA691343BB617B68BA699A607B6819
:101D5C005B68BB610122FB6902FA03F3DB43BA69DE
:101D6C001340BB613B685B681B0903F00102FB6914
:101D7C0002FA03F3BA691343BB617B68BA695A6010
:101D8C003B685B6803F00303032B17D07B68DB68AD
:101D9C00BB61FB695B00032202FA03F3DB43BA6904
:101DAC001340BB613B689A68FB695B0002FA03F362
:101DBC00BA691343BB617B68BA69DA603B685B68DC
:101DCC0003F00303022B23D1FB69DA087B6808328A
:101DDC0053F82230BB61FB6903F007039B000F2211
:101DEC0002FA03F3DB43BA691340BB613B681A691F
:101DFC00FB6903F007039B0002FA03F3BA69134370
:101E0C00BB61FB69DA087B680832B96943F82210B8
:101E1C007B681B68BB61FB695B00032202FA03F35E
:101E2C00DB43BA691340BB613B685B6803F0030298
:101E3C00FB695B0002FA03F3BA691343BB617B686D
:101E4C00BA691A603B685B6803F44033002B00F0FE
:101E5C00C0800023FB60664B5B6C654A43F4804397
:101E6C005364634B5B6C03F48043FB60FB68614A17
:101E7C00FB699B08023352F82330BB61FB6903F00A
:101E8C0003039B000F2202FA03F3DB43BA691340EE
:101E9C00BB617B68584A934237D07B68574A934260
:101EAC0031D07B68564A93422BD07B68554A93427B
:101EBC0025D07B68544A93421FD07B68534A934287
:101ECC0019D07B68524A934213D07B68514A934293
:101EDC000DD07B68504A934207D07B684F4A93429F
:101EEC0001D1092312E00A2310E008230EE0072396
:101EFC000CE006230AE0052308E0042306E0032394
:101F0C0004E0022302E0012300E00023FA6902F05E
:101F1C00030292009340BA691343BB613549FB69D4
:101F2C009B080233BA6941F823203D4B9B68BB6187
:101F3C003B69DB43BA691340BB613B685B6803F4E4
:101F4C008013002B03D0BA693B691343BB61344A3D
:101F5C00BB699360324BDB68BB613B69DB43BA699D
:101F6C001340BB613B685B6803F40013002B03D088
:101F7C00BA693B691343BB61294ABB69D360284BDF
:101F8C005B68BB613B69DB43BA691340BB613B686F
:101F9C005B6803F40033002B03D0BA693B6913432D
:101FAC00BB611F4ABB6953601D4B1B68BB613B691E
:101FBC00DB43BA691340BB613B685B6803F4803355
:101FCC00002B03D0BA693B691343BB61144ABB694C
:101FDC001360FB690133FB61FB690F2B7FF684AE49
:101FEC0000BF00BF2437BD465DF8047B704700BFBF
:101FFC00003802400038014000000240000402405A
:10200C0000080240000C0240001002400014024084
:10201C0000180240001C0240002002400024024034
:10202C00003C014080B483B000AF78600B467B80ED
:10203C0013467B707B78002B03D07A887B689A617F
:10204C0003E07B881A047B689A6100BF0C37BD469D
:10205C005DF8047B704780B485B000AF78600B46A8
:10206C007B807B685B69FB607A88FB6813401A0491
:10207C00FB68D9437B880B401A437B689A6100BF8D
:10208C001437BD465DF8047B7047000080B582B004
:10209C0000AF0346FB80084B5A69FB881340002BAA
:1020AC0006D0054AFB885361FB881846FEF794FC62
:1020BC0000BF0837BD4680BD003C014080B582B0F2
:1020CC0000AF00237B6000233B60204B1B6C1F4A3E
:1020DC0043F0805313641D4B1B6C03F080533B6027
:1020EC003B681B4B01221A60FFF7D0F8786009E0BF
:1020FC00FFF7CCF802467B68D31AB3F57A7F01D987
:10210C0003231FE0134B5B6803F48033B3F5803F6C
:10211C00EED1114B01221A60FFF7B8F8786009E094
:10212C00FFF7B4F802467B68D31AB3F57A7F01D96E
:10213C00032307E0074B5B6803F40033B3F5003F60
:10214C00EED1002318460837BD4680BD003802404A
:10215C0040000E420070004044000E4280B586B034
:10216C0000AF78607B68002B01D1012367E27B68AC
:10217C001B6803F00103002B75D0884B9B6803F0A0
:10218C000C03042B0CD0854B9B6803F00C03082B21
:10219C0012D1824B5B6803F48003B3F5800F0BD133
:1021AC007E4B1B6803F40033002B5BD07B685B68B1
:1021BC00002B57D1012342E27B685B68B3F5803F6B
:1021CC0006D1764B1B68754A43F4803313601DE0CF
:1021DC007B685B68B3F5A02F0CD1704B1B686F4A02
:1021EC0043F4802313606D4B1B686C4A43F48033BB
:1021FC0013600BE0694B1B68684A23F4803313604F
:10220C00664B1B68654A23F4802313607B685B680C
:10221C00002B13D0FFF73AF8386108E0FFF736F8D7
:10222C0002463B69D31A642B01D9032307E25B4BAB
:10223C001B6803F40033002BF0D014E0FFF726F8F2
:10224C00386108E0FFF722F802463B69D31A642B89
:10225C0001D90323F3E1514B1B6803F40033002B2A
:10226C00F0D100E000BF7B681B6803F00203002B79
:10227C0063D04A4B9B6803F00C03002B0BD0474BED
:10228C009B6803F00C03082B1CD1444B5B6803F4D4
:10229C008003002B16D1414B1B6803F00203002B6B
:1022AC0005D07B68DB68012B01D00123C7E13B4BD8
:1022BC001B6823F0F8027B681B69DB00374913436A
:1022CC000B603AE07B68DB68002B20D0344B01229A
:1022DC001A60FEF7DBFF386108E0FEF7D7FF024615
:1022EC003B69D31A022B01D90323A8E12B4B1B68A2
:1022FC0003F00203002BF0D0284B1B6823F0F802EC
:10230C007B681B69DB00254913430B6015E0244BEC
:10231C0000221A60FEF7BAFF386108E0FEF7B6FF3C
:10232C0002463B69D31A022B01D9032387E11B4BCD
:10233C001B6803F00203002BF0D17B681B6803F0D1
:10234C000803002B36D07B685B69002B16D0154B2D
:10235C0001221A60FEF79AFF386108E0FEF796FF3B
:10236C0002463B69D31A022B01D9032367E10B4BBD
:10237C005B6F03F00203002BF0D01BE0094B002233
:10238C001A60FEF783FF38610EE0FEF77FFF02460E
:10239C003B69D31A022B07D9032350E100380240C2
:1023AC0000004742800E4742884B5B6F03F00203EC
:1023BC00002BEAD17B681B6803F00403002B00F0B0
:1023CC0097800023FB75814B1B6C03F08053002B13
:1023DC000FD10023BB607D4B1B6C7C4A43F08053B8
:1023EC0013647A4B1B6C03F08053BB60BB680123F6
:1023FC00FB75774B1B6803F48073002B18D1744B5F
:10240C001B68734A43F480731360FEF73FFF386117
:10241C0008E0FEF73BFF02463B69D31A022B01D9B9
:10242C0003230CE16A4B1B6803F48073002BF0D080
:10243C007B689B68012B06D1644B1B6F634A43F08E
:10244C00010313671CE07B689B68052B0CD15F4B69
:10245C001B6F5E4A43F0040313675C4B1B6F5B4AB4
:10246C0043F0010313670BE0584B1B6F574A23F0E3
:10247C0001031367554B1B6F544A23F00403136776
:10248C007B689B68002B15D0FEF700FF38610AE0D3
:10249C00FEF7FCFE02463B69D31A41F288329342A6
:1024AC0001D90323CBE0494B1B6F03F00203002B34
:1024BC00EED014E0FEF7EAFE38610AE0FEF7E6FE25
:1024CC0002463B69D31A41F28832934201D9032365
:1024DC00B5E03E4B1B6F03F00203002BEED1FB7DEE
:1024EC00012B05D1394B1B6C384A23F080531364F4
:1024FC007B689B69002B00F0A180344B9B6803F038
:10250C000C03082B5CD07B689B69022B41D1314BAF
:10251C0000221A60FEF7BAFE386108E0FEF7B6FE3C
:10252C0002463B69D31A022B01D9032387E0274BC0
:10253C001B6803F00073002BF0D17B68DA697B68B1
:10254C001B6A1A437B685B6A9B011A437B689B6A14
:10255C005B08013B1B041A437B68DB6A1B061B49A7
:10256C0013434B601B4B01221A60FEF78FFE386140
:10257C0008E0FEF78BFE02463B69D31A022B01D909
:10258C0003235CE0114B1B6803F00073002BF0D0AD
:10259C0054E0104B00221A60FEF778FE386108E018
:1025AC00FEF774FE02463B69D31A022B01D90323B2
:1025BC0045E0064B1B6803F00073002BF0D13DE0A7
:1025CC007B689B69012B07D1012338E0003802405E
:1025DC0000700040600047421B4B5B68FB607B68EF
:1025EC009B69012B28D0FB6803F480027B68DB69B4
:1025FC009A4221D1FB6803F03F027B681B6A9A4226
:10260C001AD1FA6847F6C07313407A68526A92017D
:10261C00934211D1FB6803F440327B689B6A5B08E0
:10262C00013B1B049A4207D1FB6803F070627B6884
:10263C00DB6A1B069A4201D0012300E000231846F6
:10264C001837BD4680BD00BF0038024080B584B04D
:10265C0000AF786039607B68002B01D10123CCE09E
:10266C00684B1B6803F00F033A689A420CD9654B10
:10267C003A68D2B21A70634B1B6803F00F033A68C6
:10268C009A4201D00123B8E07B681B6803F0020377
:10269C00002B20D07B681B6803F00403002B05D0B3
:1026AC00594B9B68584A43F4E05393607B681B6812
:1026BC0003F00803002B05D0534B9B68524A43F49C
:1026CC0060439360504B9B6823F0F0027B689B68DF
:1026DC004D4913438B607B681B6803F00103002B8F
:1026EC0044D07B685B68012B07D1474B1B6803F414
:1026FC000033002B19D101237FE07B685B68022B30
:10270C0003D07B685B68032B07D13F4B1B6803F03E
:10271C000073002B09D101236FE03B4B1B6803F0C6
:10272C000203002B01D1012367E0374B9B6823F098
:10273C0003027B685B68344913438B60FEF7A6FD8C
:10274C00F8600AE0FEF7A2FD0246FB68D31A41F2DC
:10275C008832934201D903234FE02B4B9B6803F043
:10276C000C027B685B689B009A42EBD1254B1B6883
:10277C0003F00F033A689A420CD2224B3A68D2B259
:10278C001A70204B1B6803F00F033A689A4201D071
:10279C00012332E07B681B6803F00403002B08D094
:1027AC00194B9B6823F4E0527B68DB681649134392
:1027BC008B607B681B6803F00803002B09D0124B5D
:1027CC009B6823F460427B681B69DB000E49134352
:1027DC008B6000F021F802460B4B9B681B0903F041
:1027EC000F030A49CB5C22FA03F3094A1360094B25
:1027FC001B681846FEF706FD002318461037BD4629
:10280C0080BD00BF003C0240003802407449000803
:10281C0004000020980000202DE9B04F94B000AFC8
:10282C0000237B640023FB6400233B640023BB6414
:10283C00794B9B6803F00C03082B0DD0082B00F28E
:10284C00E180002B02D0042B03D0DBE0734BBB6484
:10285C00DBE0734BBB64D8E06F4B5B6803F03F036A
:10286C007B646D4B5B6803F48003002B63D06A4B75
:10287C005B689B090022BB63FA63BB6BC3F3080361
:10288C003B6300237B63D7E90C4522462B464FF074
:10289C0000004FF00001590141EAD261500102469B
:1028AC000B462146511A3961294663EB01037B61C2
:1028BC004FF000024FF00003D7E904AB59468B01EF
:1028CC00514643EA916351468A015146B2EB0108E5
:1028DC00594663EB01094FF000024FF000034FEA39
:1028EC00C90343EA58734FEAC802904699462346F7
:1028FC0018EB0303BB602B4649EB0303FB604FF063
:10290C0000024FF00003D7E9024529464B0221464D
:10291C0043EAD15321464A02104619467B6C0022E9
:10292C00BB62FA62D7E90A23FDF762FC02460B464A
:10293C001346FB6458E0384B5B689B090022184631
:10294C001146C0F308033B6200237B62D7E9088978
:10295C0042464B464FF000004FF00001590141EA4E
:10296C00D261500102460B464146B2EB010A494680
:10297C0063EB010B4FF000024FF000034FEA8B1397
:10298C0043EA9A634FEA8A12B2EB0A0463EB0B0533
:10299C004FF000024FF00003EB0043EA5473E200E7
:1029AC0014461D464346E3183B604B4645EB030378
:1029BC007B604FF000024FF00003D7E90045294639
:1029CC008B02214643EA915321468A02104619464E
:1029DC007B6C0022BB61FA61D7E90623FDF708FC8A
:1029EC0002460B461346FB640B4B5B681B0C03F057
:1029FC00030301335B003B64FA6C3B6CB2FBF3F3F7
:102A0C00BB6402E0054BBB6400BFBB6C184650377F
:102A1C00BD46BDE8B08F00BF003802400024F40072
:102A2C0000127A0080B400AF034B1B681846BD46F9
:102A3C005DF8047B704700BF0400002080B500AF38
:102A4C00FFF7F0FF0246054B9B689B0A03F0070358
:102A5C000349CB5C22FA03F3184680BD00380240D0
:102A6C008449000880B500AFFFF7DCFF0246054B38
:102A7C009B685B0B03F007030349CB5C22FA03F35F
:102A8C00184680BD003802408449000880B582B0E9
:102A9C0000AF78607B68002B01D1012341E07B689B
:102AAC0093F83D30DBB2002B06D17B68002283F813
:102ABC003C207868FEF75CF87B68022283F83D20A6
:102ACC007B681A687B6804331946104600F07EFA5E
:102ADC007B68012283F846207B68012283F83E2024
:102AEC007B68012283F83F207B68012283F8402019
:102AFC007B68012283F841207B68012283F8422005
:102B0C007B68012283F843207B68012283F84420F0
:102B1C007B68012283F845207B68012283F83D20E5
:102B2C00002318460837BD4680BD000080B485B030
:102B3C0000AF78607B6893F83D30DBB2012B01D09D
:102B4C0001234EE07B68022283F83D207B681B68E2
:102B5C00DA687B681B6842F00102DA607B681B68EC
:102B6C00234A934222D07B681B68B3F1804F1DD05F
:102B7C007B681B681F4A934218D07B681B681E4AEF
:102B8C00934213D07B681B681C4A93420ED07B681F
:102B9C001B681B4A934209D07B681B68194A9342F5
:102BAC0004D07B681B68184A934211D17B681B6860
:102BBC009B6803F00703FB60FB68062B10D07B6857
:102BCC001B681A687B681B6842F001021A6007E0F8
:102BDC007B681B681A687B681B6842F001021A60EC
:102BEC00002318461437BD465DF8047B704700BFC0
:102BFC00000001400004004000080040000C0040B0
:102C0C0000040140004001400018004080B584B031
:102C1C0000AF78607B681B68DB68FB607B681B68B7
:102C2C001B69BB60BB6803F00203002B20D0FB6860
:102C3C0003F00203002B1BD07B681B686FF00202B1
:102C4C001A617B6801221A777B681B689B6903F009
:102C5C000303002B03D0786800F099F905E078683D
:102C6C0000F08BF9786800F09CF97B6800221A77E9
:102C7C00BB6803F00403002B20D0FB6803F00403B3
:102C8C00002B1BD07B681B686FF004021A617B68F9
:102C9C0002221A777B681B689B6903F44073002B34
:102CAC0003D0786800F073F905E0786800F065F9F6
:102CBC00786800F076F97B6800221A77BB6803F01D
:102CCC000803002B20D0FB6803F00803002B1BD05B
:102CDC007B681B686FF008021A617B6804221A7704
:102CEC007B681B68DB6903F00303002B03D0786857
:102CFC0000F04DF905E0786800F03FF9786800F0D5
:102D0C0050F97B6800221A77BB6803F01003002B84
:102D1C0020D0FB6803F01003002B1BD07B681B68D2
:102D2C006FF010021A617B6808221A777B681B68A7
:102D3C00DB6903F44073002B03D0786800F027F9AB
:102D4C0005E0786800F019F9786800F02AF97B68DA
:102D5C0000221A77BB6803F00103002B0CD0FB6830
:102D6C0003F00103002B07D07B681B686FF0010296
:102D7C001A617868FDF724FFBB6803F08003002B11
:102D8C000CD0FB6803F08003002B07D07B681B681A
:102D9C006FF080021A61786800F0DEFABB6803F00D
:102DAC004003002B0CD0FB6803F04003002B07D032
:102DBC007B681B686FF040021A61786800F0FBF8C2
:102DCC00BB6803F02003002B0CD0FB6803F020033E
:102DDC00002B07D07B681B686FF020021A617868A3
:102DEC0000F0B0FA00BF1037BD4680BD80B584B08E
:102DFC0000AF786039600023FB737B6893F83C303C
:102E0C00012B01D10223B4E07B68012283F83C2022
:102E1C007B68022283F83D207B681B689B68BB6043
:102E2C00BB6823F07703BB60BB6823F47F43BB60B4
:102E3C007B681B68BA689A603B681B68B3F5005FD7
:102E4C003ED0B3F5005F00F28780B3F5805F00F0F1
:102E5C008680B3F5805F7FD8702B1AD0702B7BD80F
:102E6C00602B50D0602B77D8502B3CD0502B73D884
:102E7C00402B58D0402B6FD8302B64D0302B6BD8D4
:102E8C00202B60D0202B67D8002B5CD0102B5AD075
:102E9C0062E07B6818683B6899683B685A683B68D5
:102EAC00DB6800F0B3F97B681B689B68BB60BB6890
:102EBC0043F07703BB607B681B68BA689A604FE08D
:102ECC007B6818683B6899683B685A683B68DB68A4
:102EDC0000F09CF97B681B689A687B681B6842F45D
:102EEC0080429A603CE07B6818683B6859683B6894
:102EFC00DB681A4600F010F97B681B6850211846F5
:102F0C0000F069F92CE07B6818683B6859683B68ED
:102F1C00DB681A4600F02FF97B681B6860211846A5
:102F2C0000F059F91CE07B6818683B6859683B68ED
:102F3C00DB681A4600F0F0F87B681B6840211846E5
:102F4C0000F049F90CE07B681A683B681B6819466D
:102F5C00104600F040F903E00123FB7300E000BFD2
:102F6C007B68012283F83D207B68002283F83C209B
:102F7C00FB7B18461037BD4680BD80B483B000AFD4
:102F8C00786000BF0C37BD465DF8047B704780B499
:102F9C0083B000AF786000BF0C37BD465DF8047B92
:102FAC00704780B483B000AF786000BF0C37BD466B
:102FBC005DF8047B704780B483B000AF786000BFCD
:102FCC000C37BD465DF8047B7047000080B485B0BB
:102FDC0000AF786039607B681B68FB607B68434A94
:102FEC00934213D07B68B3F1804F0FD07B68404A7B
:102FFC0093420BD07B683F4A934207D07B683E4A92
:10300C00934203D07B683D4A934208D1FB6823F07E
:10301C007003FB603B685B68FA681343FB607B687A
:10302C00324A93422BD07B68B3F1804F27D07B6818
:10303C002F4A934223D07B682E4A93421FD07B6841
:10304C002D4A93421BD07B682C4A934217D07B6845
:10305C002B4A934213D07B682A4A93420FD07B6849
:10306C00294A93420BD07B68284A934207D07B684D
:10307C00274A934203D07B68264A934208D1FB68C7
:10308C0023F44073FB603B68DB68FA681343FB6016
:10309C00FB6823F080023B685B691343FB603B6871
:1030AC009A687B68DA623B681A687B689A627B680C
:1030BC000E4A934203D07B68104A934203D13B687B
:1030CC001A697B681A637B681B6843F004027B688F
:1030DC001A607B6801225A617B68FA681A6000BF2B
:1030EC001437BD465DF8047B704700BF00000140FB
:1030FC000004004000080040000C004000040140A7
:10310C0000400140004401400048014000180040CC
:10311C00001C00400020004080B487B000AFF86075
:10312C00B9607A60FB681B6A7B61FB681B6A23F0E1
:10313C000102FB681A62FB689B693B613B6923F0E7
:10314C00F0033B617B681B013A6913433B617B696C
:10315C0023F00A037B617A69BB6813437B61FB68CC
:10316C003A699A61FB687A691A6200BF1C37BD46DE
:10317C005DF8047B704780B487B000AFF860B9602D
:10318C007A60FB681B6A7B61FB681B6A23F0100288
:10319C00FB681A62FB689B693B613B6923F47043D3
:1031AC003B617B681B033A6913433B617B6923F0EA
:1031BC00A0037B61BB681B017A6913437B61FB68CD
:1031CC003A699A61FB687A691A6200BF1C37BD467E
:1031DC005DF8047B704780B485B000AF78603960CF
:1031EC007B689B68FB60FB6823F07003FB603A68AC
:1031FC00FB68134343F00703FB607B68FA689A6033
:10320C0000BF1437BD465DF8047B704780B487B0AF
:10321C0000AFF860B9607A603B60FB689B687B61CB
:10322C007B6923F47F437B613B681A027B681A43FA
:10323C00BB6813437A6913437B61FB687A699A60B4
:10324C0000BF1C37BD465DF8047B704780B485B069
:10325C0000AF786039607B6893F83C30012B01D16A
:10326C0002235AE07B68012283F83C207B6802220F
:10327C0083F83D207B681B685B68FB607B681B6880
:10328C009B68BB60FB6823F07003FB603B681B68AA
:10329C00FA681343FB607B681B68FA685A607B68AA
:1032AC001B68214A934222D07B681B68B3F1804F84
:1032BC001DD07B681B681D4A934218D07B681B6825
:1032CC001B4A934213D07B681B681A4A93420ED058
:1032DC007B681B68184A934209D07B681B68174AA5
:1032EC00934204D07B681B68154A93420CD1BB688F
:1032FC0023F08003BB603B685B68BA681343BB6018
:10330C007B681B68BA689A607B68012283F83D2051
:10331C007B68002283F83C20002318461437BD46F6
:10332C005DF8047B704700BF0000014000040040C2
:10333C0000080040000C0040000401400040014027
:10334C000018004080B483B000AF786000BF0C3729
:10335C00BD465DF8047B704780B483B000AF7860E5
:10336C0000BF0C37BD465DF8047B704780B582B05A
:10337C0000AF78607B68002B01D1012342E07B68B1
:10338C0093F84130DBB2002B06D17B68002283F826
:10339C0040207868FDF780FC7B68242283F841206C
:1033AC007B681B68DA687B681B6822F40052DA6061
:1033BC00786800F0A1FF7B681B681A697B681B6842
:1033CC0022F490421A617B681B685A697B681B68FF
:1033DC0022F02A025A617B681B68DA687B681B68DA
:1033EC0042F40052DA607B6800225A647B68202227
:1033FC0083F841207B68202283F842207B680022DE
:10340C005A63002318460837BD4680BD80B58AB084
:10341C0002AFF860B9603B601346FB8000237B6110
:10342C00FB6893F84130DBB2202B75D1BB68002BC5
:10343C0002D0FB88002B01D101236EE0FB68002237
:10344C005A64FB68212283F84120FDF71FFF786145
:10345C00FB68FA889A84FB68FA88DA84FB689B68B4
:10346C00B3F5805F08D1FB681B69002B04D10023E6
:10347C00FB61BB68BB6103E0BB68FB610023BB6104
:10348C002EE03B6800937B6900228021F86800F0F5
:10349C0071FC0346002B05D0FB68202283F84120E9
:1034AC0003233AE0FB69002B0BD1BB691B881A463E
:1034BC00FB681B68C2F308025A60BB690233BB612C
:1034CC0007E0FB691A78FB681B685A60FB690133DB
:1034DC00FB61FB68DB8C9BB2013B9AB2FB68DA8424
:1034EC00FB68DB8C9BB2002BCBD13B6800937B69D8
:1034FC0000224021F86800F03DFC0346002B05D06B
:10350C00FB68202283F84120032306E0FB6820227D
:10351C0083F84120002300E0022318462037BD46E3
:10352C0080BD80B58CB000AFF860B9601346FB80ED
:10353C00FB6893F84230DBB2202B46D1BB68002BE2
:10354C0002D0FB88002B01D101233FE0FB68012254
:10355C001A63FB6800225A63FB881A46B968F8683C
:10356C0000F062FC034687F82F30FB681B6B012BC5
:10357C0025D100233B61FB681B681B683B61FB6822
:10358C001B685B683B613B69FB681B680C33BB6168
:10359C00BB6953E8003F7B617B6943F01003BB625E
:1035AC00FB681B680C33BA6A7A623B62396A7A6AC6
:1035BC0041E80023FB61FB69002BE5D102E001230C
:1035CC0087F82F3097F82F3000E002231846303759
:1035DC00BD4680BD80B5BAB000AF78607B681B6813
:1035EC001B68C7F8E4307B681B68DB68C7F8E03001
:1035FC007B681B685B69C7F8DC300023C7F8D830E0
:10360C000023C7F8D430D7F8E43003F00F03C7F821
:10361C00D830D7F8D830002B0FD1D7F8E43003F0DE
:10362C002003002B09D0D7F8E03003F02003002B47
:10363C0003D0786800F0A2FD73E2D7F8D830002BE5
:10364C0000F0DE80D7F8DC3003F00103002B06D14C
:10365C00D7F8E03003F49073002B00F0D180D7F84A
:10366C00E43003F00103002B0BD0D7F8E03003F467
:10367C008073002B05D07B685B6C43F001027B6888
:10368C005A64D7F8E43003F00403002B0BD0D7F8BE
:10369C00DC3003F00103002B05D07B685B6C43F03E
:1036AC0002027B685A64D7F8E43003F00203002B63
:1036BC000BD0D7F8DC3003F00103002B05D07B686E
:1036CC005B6C43F004027B685A64D7F8E43003F077
:1036DC000803002B11D0D7F8E03003F02003002BA7
:1036EC0005D1D7F8DC3003F00103002B05D07B6843
:1036FC005B6C43F008027B685A647B685B6C002B44
:10370C0000F00A82D7F8E43003F02003002B08D035
:10371C00D7F8E03003F02003002B02D0786800F0DB
:10372C002DFD7B681B685B6903F04003402B0CBFCD
:10373C0001230023DBB2C7F8D4307B685B6C03F049
:10374C000803002B03D1D7F8D430002B4FD0786866
:10375C0000F038FC7B681B685B6903F04003402B6E
:10376C0041D17B681B681433C7F89C30D7F89C3068
:10377C0053E8003FC7F89830D7F8983023F040034F
:10378C00C7F8D0307B681B681433D7F8D020C7F843
:10379C00A820C7F8A430D7F8A410D7F8A82041E87F
:1037AC000023C7F8A030D7F8A030002BD9D17B6804
:1037BC00DB6B002B13D07B68DB6B8A4A1A657B684A
:1037CC00DB6B1846FDF7F6FF0346002B16D07B6823
:1037DC00DB6B1B6D7A68D26B104698470EE07868ED
:1037EC0000F0C0F90AE0786800F0BCF906E07868EF
:1037FC0000F0B8F97B6800225A648DE100BF8BE1C0
:10380C007B681B6B012B40F06781D7F8E43003F029
:10381C001003002B00F06081D7F8E03003F01003A8
:10382C00002B00F059810023BB607B681B681B6870
:10383C00BB607B681B685B68BB60BB687B681B6894
:10384C005B6903F04003402B40F0CE807B68DB6B60
:10385C001B685B68A7F8BE30B7F8BE30002B00F0D1
:10386C00A9807B689B8DB7F8BE209A4280F0A2801D
:10387C007B68B7F8BE20DA857B68DB6BDB69B3F558
:10388C00807F00F088807B681B680C33C7F8883019
:10389C00D7F8883053E8003FC7F88430D7F8843025
:1038AC0023F48073C7F8B8307B681B680C33D7F8E7
:1038BC00B820C7F89420C7F89030D7F89010D7F8F4
:1038CC00942041E80023C7F88C30D7F88C30002BBB
:1038DC00D9D17B681B6814337B677B6F53E8003F3F
:1038EC003B673B6F23F00103C7F8B4307B681B6860
:1038FC001433D7F8B420C7F88020FB67F96FD7F8DA
:10390C00802041E80023BB67BB6F002BE1D17B68B3
:10391C001B6814333B663B6E53E8003FFB65FB6D45
:10392C0023F04003C7F8B0307B681B681433D7F81A
:10393C00B020FA66BB66B96EFA6E41E800237B666E
:10394C007B6E002BE3D17B68202283F842207B68BE
:10395C0000221A637B681B680C33FB64FB6C53E816
:10396C00003FBB64BB6C23F01003C7F8AC307B6822
:10397C001B680C33D7F8AC20BA657B65796DBA6DD2
:10398C0041E800233B653B6D002BE3D17B68DB6B8F
:10399C001846FDF79FFE7B6802225A637B689A8D5E
:1039AC007B68DB8D9BB2D31A9BB219467868FDF706
:1039BC004DF8B3E07B689B8DB7F8BE209A4240F07F
:1039CC00AD807B68DB6BDB69B3F5807F40F0A68054
:1039DC007B6802225A637B689B8D19467868FDF7D9
:1039EC0035F89BE0974000087B689A8D7B68DB8DEF
:1039FC009BB2D31AA7F8CE307B68DB8D9BB2002B21
:103A0C0000F08E80B7F8CE30002B00F089807B68F8
:103A1C001B680C33BB63BB6B53E8003F7B637B6B56
:103A2C0023F49073C7F8C8307B681B680C33D7F845
:103A3C00C8207A643B64396C7A6C41E80023FB63E0
:103A4C00FB6B002BE3D17B681B6814337B627B6AB6
:103A5C0053E8003F3B623B6A23F00103C7F8C430D4
:103A6C007B681B681433D7F8C4203A63FB62F96A8D
:103A7C003A6B41E80023BB62BB6A002BE3D17B6845
:103A8C00202283F842207B6800221A637B681B6823
:103A9C000C333B613B6953E8003FFB60FB6823F050
:103AAC001003C7F8C0307B681B680C33D7F8C020F4
:103ABC00FA61BB61B969FA6941E800237B617B69F2
:103ACC00002BE3D17B6802225A63B7F8CE3019463B
:103ADC007868FCF7BBFF23E0D7F8E43003F08003F1
:103AEC00002B09D0D7F8E03003F08003002B03D073
:103AFC00786800F0DBFA14E0D7F8E43003F0400308
:103B0C00002B0ED0D7F8E03003F04003002B08D088
:103B1C00786800F01BFB04E000BF02E000BF00E08F
:103B2C0000BFE837BD4680BD80B483B000AF78607D
:103B3C0000BF0C37BD465DF8047B704780B483B082
:103B4C0000AF786000BF0C37BD465DF8047B704752
:103B5C0080B483B000AF786000BF0C37BD465DF811
:103B6C00047B704780B483B000AF786000BF0C3723
:103B7C00BD465DF8047B704780B59CB000AF7860A3
:103B8C007B689B6BFB667B681B681B6803F480730C
:103B9C00002B72D1FB6E0022DA85FB6E1B680C3396
:103BAC00FB64FB6C53E8003FBB64BB6C23F4807379
:103BBC00BB66FB6E1B680C33BA6EBA657B65796DA0
:103BCC00BA6D41E800233B653B6D002BE5D1FB6EE4
:103BDC001B681433BB63BB6B53E8003F7B637B6B8D
:103BEC0023F001037B66FB6E1B6814337A6E7A64D8
:103BFC003B64396C7A6C41E80023FB63FB6B002B54
:103C0C00E5D1FB6E1B6814337B627B6A53E8003F83
:103C1C003B623B6A23F040033B66FB6E1B6814332C
:103C2C003A6E3A63FB62F96A3A6B41E80023BB6275
:103C3C00BB6A002BE5D1FB6E202283F84220FB6E81
:103C4C001B6B012B19D1FB6E1B680C333B613B6961
:103C5C0053E8003FFB60FB6823F01003FB65FB6E31
:103C6C001B680C33FA6DFA61BB61B969FA6941E8FA
:103C7C0000237B617B69002BE5D1FB6E00225A632C
:103C8C00FB6E1B6B012B06D1FB6E9B8D1946F86EE0
:103C9C00FCF7DCFE02E0F86EFFF750FF00BF703758
:103CAC00BD4680BD80B584B000AF78607B689B6BEF
:103CBC00FB60FB6801225A63FB681B6B012B08D16C
:103CCC00FB689B8D5B089BB21946F868FCF7BEFE3F
:103CDC0002E0F868FFF73CFF00BF1037BD4680BD1F
:103CEC0080B584B000AF78600023FB607B689B6B71
:103CFC00BB60BB681B685B6903F08003802B0CBF47
:103D0C0001230023DBB2FB60BB6893F84130DBB2CC
:103D1C00212B08D1FB68002B05D0BB680022DA846C
:103D2C00B86800F027F9BB681B685B6903F04003B7
:103D3C00402B0CBF01230023DBB2FB60BB6893F864
:103D4C004230DBB2222B08D1FB68002B05D0BB68BC
:103D5C000022DA85B86800F035F9BB685B6C43F07B
:103D6C001002BB685A64B868FFF7FCFE00BF10373E
:103D7C00BD4680BD80B586B000AFF860B9603B60D1
:103D8C001346FB713BE03B6AB3F1FF3F37D0FDF7C5
:103D9C007DFA02463B68D31A3A6A9A4202D33B6ACE
:103DAC00002B01D103233AE0FB681B68DB6803F0AE
:103DBC000403002B23D0BB68802B20D0BB68402B86
:103DCC001DD0FB681B681B6803F00803082B16D179
:103DDC0000237B61FB681B681B687B61FB681B68AD
:103DEC005B687B617B69F86800F0ECF8FB68082283
:103DFC005A64FB68002283F8402001230FE0FB6823
:103E0C001B681A68BB681340BA689A420CBF01233E
:103E1C000023DBB21A46FB799A42B4D00023184631
:103E2C001837BD4680BD000080B598B000AFF86073
:103E3C00B9601346FB80BA68FB689A62FB68FA8823
:103E4C009A85FB6800225A64FB68222283F8422080
:103E5C00FB68DB6B444ADA63FB68DB6B434A1A642E
:103E6C00FB68DB6B424ADA64FB68DB6B00221A6589
:103E7C0007F10803FB65FB68D86BFB681B68043310
:103E8C001946FB6D1A68FB88FDF7CCFB0346002B2B
:103E9C0008D0FB6810225A64FB68202283F8422069
:103EAC0001235DE000233B61FB681B681B683B61E1
:103EBC00FB681B685B683B613B69FB681B69002BFB
:103ECC0019D0FB681B680C333B643B6C53E8003F18
:103EDC00FB63FB6B43F48073BB65FB681B680C33A3
:103EEC00BA6DFA64BB64B96CFA6C41E800237B646C
:103EFC007B6C002BE5D1FB681B681433FB62FB6AFF
:103F0C0053E8003FBB62BB6A43F001037B65FB686F
:103F1C001B6814337A6DBA637B63796BBA6B41E8B7
:103F2C0000233B633B6B002BE5D1FB681B68143310
:103F3C00BB61BB6953E8003F7B617B6943F0400385
:103F4C003B65FB681B6814333A6D7A623B62396AD5
:103F5C007A6A41E80023FB61FB69002BE5D1002361
:103F6C0018466037BD4680BD853B0008B13C000853
:103F7C00ED3C000880B489B000AF78607B681B68AA
:103F8C000C33FB60FB6853E8003FBB60BB6823F05D
:103F9C00C003FB617B681B680C33FA69BA617B61F7
:103FAC007969BA6941E800233B613B69002BE5D193
:103FBC007B68202283F8412000BF2437BD465DF882
:103FCC00047B704780B495B000AF78607B681B6849
:103FDC000C337B637B6B53E8003F3B633B6B23F4FD
:103FEC009073FB647B681B680C33FA6C3A64FB635C
:103FFC00F96B3A6C41E80023BB63BB6B002BE5D13A
:10400C007B681B6814333B623B6A53E8003FFB61DF
:10401C00FB6923F00103BB647B681B681433BA6C27
:10402C00FA62BB62B96AFA6A41E800237B627B6A76
:10403C00002BE5D17B681B6B012B19D17B681B68AE
:10404C000C33FB60FB6853E8003FBB60BB6823F09C
:10405C0010037B647B681B680C337A6CBA617B61E0
:10406C007969BA6941E800233B613B69002BE5D1D2
:10407C007B68202283F842207B6800221A6300BFF1
:10408C005437BD465DF8047B704780B584B000AFF3
:10409C0078607B689B6BFB60FB680022DA85F868B4
:1040AC00FFF760FD00BF1037BD4680BD80B485B002
:1040BC0000AF78607B6893F84130DBB2212B3ED1A6
:1040CC007B689B68B3F5805F14D17B681B69002B00
:1040DC0010D17B681B6AFB60FB681B881A467B68E7
:1040EC001B68C2F308025A607B681B6A9A1C7B68C7
:1040FC001A6208E07B681B6A591C7A6811621A788C
:10410C007B681B685A607B68DB8C9BB2013B9BB263
:10411C007A681946D184002B0FD17B681B68DA684A
:10412C007B681B6822F08002DA607B681B68DA68A7
:10413C007B681B6842F04002DA60002300E0022337
:10414C0018461437BD465DF8047B704780B582B0C5
:10415C0000AF78607B681B68DA687B681B6822F0AC
:10416C004002DA607B68202283F841207868FFF7F0
:10417C00DBFC002318460837BD4680BD80B58CB0EB
:10418C0000AF78600023FB620023BB627B6893F86E
:10419C004230DBB2222B40F0AA807B689B68B3F5DF
:1041AC00805F15D17B681B69002B11D17B689B6AE2
:1041BC00BB627B681B685B689BB2C3F308039AB253
:1041CC00BB6A1A807B689B6A9A1C7B689A6224E0A3
:1041DC007B689B6AFB627B689B68B3F5805F07D04A
:1041EC007B689B68002B0AD17B681B69002B06D16E
:1041FC007B681B685B68DAB2FB6A1A7008E07B6844
:10420C001B685B68DBB203F07F03DAB2FB6A1A70DF
:10421C007B689B6A5A1C7B689A627B68DB8D9BB2BD
:10422C00013B9BB27A681946D185002B5DD17B6826
:10423C001B68DA687B681B6822F02002DA607B68F6
:10424C001B68DA687B681B6822F48072DA607B6812
:10425C001B685A697B681B6822F001025A617B68F3
:10426C00202283F842207B6800225A637B681B6BF8
:10427C00012B35D17B6800221A637B681B680C33D9
:10428C007B617B6953E8003F3B613B6923F0100382
:10429C007B627B681B680C337A6A3A62FB61F96952
:1042AC003A6A41E80023BB61BB69002BE5D17B680E
:1042BC001B681B6803F01003102B0AD10023FB6052
:1042CC007B681B681B68FB607B681B685B68FB601A
:1042DC00FB687B689B8D19467868FCF7B7FB02E09E
:1042EC007868FFF72BFC002302E0002300E0022398
:1042FC0018463037BD4680BD2DE9B04FC0B000AF79
:10430C00C7F8F400D7F8F4301B681B6923F440504D
:10431C00D7F8F430D968D7F8F4301A6840EA0103BA
:10432C001361D7F8F4309A68D7F8F4301B691A4344
:10433C00D7F8F4305B691A43D7F8F430DB691343D0
:10434C00C7F8F830D7F8F4301B68DB6823F4164153
:10435C0021F00C01D7F8F4301A68D7F8F8300B4379
:10436C00D360D7F8F4301B685B6923F44070D7F83E
:10437C00F4309969D7F8F4301A6840EA01035361B4
:10438C00D7F8F4301A688F4B9A4205D0D7F8F4302E
:10439C001A688D4B9A4204D1FEF764FBC7F8FC00F7
:1043AC0003E0FEF74BFBC7F8FC00D7F8F430DB69F1
:1043BC00B3F5004F40F00C81D7F8FC300022C7F861
:1043CC00E830C7F8EC20D7E93A4522462B4691183D
:1043DC00B9655B41FB65D7E91623214612EB010851
:1043EC00294643EB01094FF000024FF000034FEA5E
:1043FC00C90343EA58734FEAC802904699462346CC
:10440C0018EB0303C7F8E0302B4649EB0303C7F85E
:10441C00E430D7F8F4305B680022C7F8D830C7F81E
:10442C00DC20D7E936120B46DB183B65134642EB12
:10443C0003037B65D7E91423D7E93801FBF7D8FED2
:10444C0002460B46614BA3FB02235B091C01D7F808
:10445C00FC300022C7F8D030C7F8D420D7E9348913
:10446C0042464B469118B9645B41FB64D7E9122371
:10447C00414612EB010A494643EB010B4FF0000297
:10448C004FF000034FEACB0343EA5A734FEACA02D8
:10449C0092469B4643461AEB0303C7F8C8304B467B
:1044AC004BEB0303C7F8CC30D7F8F4305B68002231
:1044BC00C7F8C030C7F8C420D7E930120B46DB1858
:1044CC003B64134642EB03037B64D7E91023D7E923
:1044DC003201FBF78DFE02460B4611463B4BA3FB0C
:1044EC0001235B09642202FB03F3CB1ADB0003F10B
:1044FC003202364BA3FB02235B095B0003F4F87317
:10450C001C44D7F8FC300022C7F8B830C7F8BC20E0
:10451C00D7E92E8942464B469118B9635B41FB6340
:10452C00D7E90E2341465118396349464B417B6309
:10453C004FF000024FF00003D7E90CAB5946CB000B
:10454C00514643EA51735146CA0010461946034678
:10455C0042469B18C7F8B0304B460A4642EB030361
:10456C00C7F8B430D7F8F4305B680022C7F8A8302D
:10457C00C7F8AC20D7E92A120B46DB18BB621346EE
:10458C0042EB0303FB62D7E90A23D7E92C01FBF7C3
:10459C002FFE02460B460D4BA3FB02135B09642155
:1045AC0001FB03F3D31ADB003233084AA2FB0323CB
:1045BC005B0903F00702D7F8F4301B6822449A60B9
:1045CC0006E100BF00100140001401401F85EB51B3
:1045DC00D7F8FC300022C7F8A030C7F8A420D7E9E0
:1045EC00288942464B46911839625B417B62D7E978
:1045FC00082341465418494643EB01054FF000028D
:10460C004FF00003EB0043EA5473E20014461D46DE
:10461C004346E318C7F898304B4645EB0303C7F8FD
:10462C009C30D7F8F4305B680022C7F89030C7F89C
:10463C0094204FF000024FF00003D7E9244529469F
:10464C008B00214643EA917321468A00D7E9260163
:10465C00FBF7CEFD02460B46604BA3FB02235B0926
:10466C001C01D7F8FC300022C7F88830C7F88C2022
:10467C00D7E9228942464B469118B9615B41FB61EF
:10468C00D7E9062341465118396149464B417B61B4
:10469C004FF000024FF00003D7E904AB5946CB00B2
:1046AC00514643EA51735146CA0010461946034617
:1046BC0042469B18C7F880304B460A4642EB030330
:1046CC00C7F88430D7F8F4305B680022BB67FA6710
:1046DC004FF000024FF00003D7E91E8949468B00CA
:1046EC00414643EA917341468A00D7E92001FBF722
:1046FC007FFD02460B461146384BA3FB01235B0999
:10470C00642202FB03F3CB1A1B013233334AA2FBA4
:10471C0003235B0903F0F0031C44D7F8FC300022A0
:10472C003B677A67D7E91C8942464B469118B960BA
:10473C005B41FB60D7E90223414651183960494679
:10474C004B417B604FF000024FF00003D7E900AB08
:10475C005946CB00514643EA51735146CA001046A4
:10476C001946034642469B18BB664B460A4642EB2B
:10477C000303FB66D7F8F4305B6800223B667A666D
:10478C004FF000024FF00003D7E9188949468B001F
:10479C00414643EA917341468A00D7E91A01FBF777
:1047AC0027FD02460B460D4BA3FB02135B0964214C
:1047BC0001FB03F3D31A1B013233084AA2FB032378
:1047CC005B0903F00F02D7F8F4301B6822449A609F
:1047DC0000BF07F58077BD46BDE8B08F1F85EB5154
:1047EC0002440346934200D1704703F8011BF9E7DA
:1047FC0010B56AB10139841810F8012B11F8013F7A
:10480C009A4203D1A04201D0002AF5D1D01A10BD92
:10481C001046FCE770B50D4D0D4C641BA410002622
:10482C00A64209D10B4D0C4C00F018F8641BA410D7
:10483C000026A64205D170BD55F8043B98470136B9
:10484C00EEE755F8043B98470136F2E79C4900081F
:10485C009C4900089C490008A0490008F8B500BF15
:10486C00F8BC08BC9E467047F8B500BFF8BC08BC45
:04487C009E4670479D
:104880004C45443120546F67676C6520426C696EFB
:104890006B2E0D0A000000000D0A72656164790D2F
:1048A0000A000000455350207374617475732072C0
:1048B000656164792E0D0A004C45445F4F4E0D0A28
:1048C000000000005475726E696E67204C454420EC
:1048D0006F6E0D0A000000004C45445F4F46460DC8
:1048E0000A0000005475726E696E67204C454420C2
:1048F0006F66660D0A000000415420766572736988
:104900006F6E000044657669636520496E666F20AE
:104910005072696E74204F75742E0D0A00000000ED
:104920000D0A4F4B0D0A0000436F6D6D616E6420E0
:1049300041542E0D0A0000004553502041540D0AE9
:104940000000000041540D0A0000000045535020B3
:104950004154474D520D0A0041542B474D520D0A08
:10496000000000004C45443220546F67676C652E90
:104970000D0A000000000000000000000102030416
:1049800006070809000000000102030400061016D3
:0449900000061016F7
:0849940058B8FF7F010000008C
:04499C00D10100083D
:0449A000AD0100085D
:1049A400C50600080024F40098480008E50E000835
:1049B40009000000A4480008B8480008E50E0008F3
:1049C40008000000C4480008D8480008E50E0008A4
:1049D40009000000E4480008F8480008E50E000853
:1049E4000A0000000449000820490008E50E0008F8
:1049F4000200000028490008000000000000000038
:104A0400000000000000000038490008110F0008F1
:104A140008000000444900084C490008110F000830
:104A24000B000000584900080000000000000000CE
:104A34000000000000000000100000000100000061
:040000050800117965
:00000001FF
